{
  "contractName": "PrimaBlueCrowdsaleDeployer",
  "abi": [
    {
      "constant": false,
      "inputs": [],
      "name": "renounceOwnership",
      "outputs": [],
      "payable": false,
      "stateMutability": "nonpayable",
      "type": "function"
    },
    {
      "constant": true,
      "inputs": [],
      "name": "owner",
      "outputs": [
        {
          "name": "",
          "type": "address"
        }
      ],
      "payable": false,
      "stateMutability": "view",
      "type": "function"
    },
    {
      "constant": true,
      "inputs": [],
      "name": "isOwner",
      "outputs": [
        {
          "name": "",
          "type": "bool"
        }
      ],
      "payable": false,
      "stateMutability": "view",
      "type": "function"
    },
    {
      "constant": false,
      "inputs": [
        {
          "name": "newOwner",
          "type": "address"
        }
      ],
      "name": "transferOwnership",
      "outputs": [],
      "payable": false,
      "stateMutability": "nonpayable",
      "type": "function"
    },
    {
      "constant": true,
      "inputs": [],
      "name": "mainsale",
      "outputs": [
        {
          "name": "",
          "type": "address"
        }
      ],
      "payable": false,
      "stateMutability": "view",
      "type": "function"
    },
    {
      "constant": true,
      "inputs": [],
      "name": "token",
      "outputs": [
        {
          "name": "",
          "type": "address"
        }
      ],
      "payable": false,
      "stateMutability": "view",
      "type": "function"
    },
    {
      "constant": true,
      "inputs": [],
      "name": "presale",
      "outputs": [
        {
          "name": "",
          "type": "address"
        }
      ],
      "payable": false,
      "stateMutability": "view",
      "type": "function"
    },
    {
      "inputs": [
        {
          "name": "owner",
          "type": "address"
        }
      ],
      "payable": false,
      "stateMutability": "nonpayable",
      "type": "constructor"
    },
    {
      "anonymous": false,
      "inputs": [
        {
          "indexed": true,
          "name": "previousOwner",
          "type": "address"
        },
        {
          "indexed": true,
          "name": "newOwner",
          "type": "address"
        }
      ],
      "name": "OwnershipTransferred",
      "type": "event"
    },
    {
      "constant": false,
      "inputs": [
        {
          "name": "foundationWallet",
          "type": "address"
        },
        {
          "name": "bountyWallet",
          "type": "address"
        },
        {
          "name": "familyFriendsWallet",
          "type": "address"
        },
        {
          "name": "teamAddr",
          "type": "address[]"
        },
        {
          "name": "teamAmounts",
          "type": "uint256[]"
        },
        {
          "name": "advisorAddr",
          "type": "address[]"
        },
        {
          "name": "advisorAmounts",
          "type": "uint256[]"
        }
      ],
      "name": "mint",
      "outputs": [
        {
          "name": "",
          "type": "bool"
        }
      ],
      "payable": false,
      "stateMutability": "nonpayable",
      "type": "function"
    },
    {
      "constant": false,
      "inputs": [
        {
          "name": "defaultRate",
          "type": "uint256"
        },
        {
          "name": "owner",
          "type": "address"
        },
        {
          "name": "wallet",
          "type": "address"
        },
        {
          "name": "openingTime",
          "type": "uint256"
        },
        {
          "name": "closingTime",
          "type": "uint256"
        }
      ],
      "name": "createPreSale",
      "outputs": [
        {
          "name": "",
          "type": "bool"
        }
      ],
      "payable": false,
      "stateMutability": "nonpayable",
      "type": "function"
    },
    {
      "constant": false,
      "inputs": [
        {
          "name": "defaultRate",
          "type": "uint256"
        },
        {
          "name": "owner",
          "type": "address"
        },
        {
          "name": "wallet",
          "type": "address"
        },
        {
          "name": "openingTime",
          "type": "uint256"
        },
        {
          "name": "closingTime",
          "type": "uint256"
        }
      ],
      "name": "createMainSale",
      "outputs": [
        {
          "name": "",
          "type": "bool"
        }
      ],
      "payable": false,
      "stateMutability": "nonpayable",
      "type": "function"
    }
  ],
  "bytecode": "0x60806040523480156200001157600080fd5b5060405160208062007b3a833981018060405260208110156200003357600080fd5b8101908080519060200190929190505050600062000056620001af60201b60201c565b9050806000806101000a81548173ffffffffffffffffffffffffffffffffffffffff021916908373ffffffffffffffffffffffffffffffffffffffff1602179055508073ffffffffffffffffffffffffffffffffffffffff16600073ffffffffffffffffffffffffffffffffffffffff167f8be0079c531659141344cd1fd0a4f28419497f9722a3daafe3b4186f6b6457e060405160405180910390a3506200010581620001b760201b60201c565b806040516200011490620003fe565b808273ffffffffffffffffffffffffffffffffffffffff1673ffffffffffffffffffffffffffffffffffffffff168152602001915050604051809103906000f08015801562000167573d6000803e3d6000fd5b50600160006101000a81548173ffffffffffffffffffffffffffffffffffffffff021916908373ffffffffffffffffffffffffffffffffffffffff160217905550506200040c565b600033905090565b620001c76200025060201b60201c565b15156200023c576040517f08c379a00000000000000000000000000000000000000000000000000000000081526004018080602001828103825260208152602001807f4f776e61626c653a2063616c6c6572206973206e6f7420746865206f776e657281525060200191505060405180910390fd5b6200024d81620002b660201b60201c565b50565b60008060009054906101000a900473ffffffffffffffffffffffffffffffffffffffff1673ffffffffffffffffffffffffffffffffffffffff166200029a620001af60201b60201c565b73ffffffffffffffffffffffffffffffffffffffff1614905090565b600073ffffffffffffffffffffffffffffffffffffffff168173ffffffffffffffffffffffffffffffffffffffff161415151562000340576040517f08c379a000000000000000000000000000000000000000000000000000000000815260040180806020018281038252602681526020018062007b146026913960400191505060405180910390fd5b8073ffffffffffffffffffffffffffffffffffffffff166000809054906101000a900473ffffffffffffffffffffffffffffffffffffffff1673ffffffffffffffffffffffffffffffffffffffff167f8be0079c531659141344cd1fd0a4f28419497f9722a3daafe3b4186f6b6457e060405160405180910390a3806000806101000a81548173ffffffffffffffffffffffffffffffffffffffff021916908373ffffffffffffffffffffffffffffffffffffffff16021790555050565b612ced8062004e2783390190565b614a0b806200041c6000396000f3fe60806040523480156200001157600080fd5b5060043610620000ac5760003560e01c8063cc3e20df116200006f578063cc3e20df1462000267578063f2fde38b1462000562578063f6fc96ad14620005a9578063fc0c546a14620005f5578063fdea8e0b146200064157620000ac565b8063715018a614620000b157806386e0c2b914620000bd5780638da5cb5b146200015a5780638f32d59b14620001a6578063bc61832414620001ca575b600080fd5b620000bb6200068d565b005b62000140600480360360a0811015620000d557600080fd5b8101908080359060200190929190803573ffffffffffffffffffffffffffffffffffffffff169060200190929190803573ffffffffffffffffffffffffffffffffffffffff1690602001909291908035906020019092919080359060200190929190505050620007cb565b604051808215151515815260200191505060405180910390f35b6200016462000b7b565b604051808273ffffffffffffffffffffffffffffffffffffffff1673ffffffffffffffffffffffffffffffffffffffff16815260200191505060405180910390f35b620001b062000ba4565b604051808215151515815260200191505060405180910390f35b6200024d600480360360a0811015620001e257600080fd5b8101908080359060200190929190803573ffffffffffffffffffffffffffffffffffffffff169060200190929190803573ffffffffffffffffffffffffffffffffffffffff169060200190929190803590602001909291908035906020019092919050505062000c04565b604051808215151515815260200191505060405180910390f35b62000548600480360360e08110156200027f57600080fd5b81019080803573ffffffffffffffffffffffffffffffffffffffff169060200190929190803573ffffffffffffffffffffffffffffffffffffffff169060200190929190803573ffffffffffffffffffffffffffffffffffffffff16906020019092919080359060200190640100000000811115620002fd57600080fd5b8201836020820111156200031057600080fd5b803590602001918460208302840111640100000000831117156200033357600080fd5b919080806020026020016040519081016040528093929190818152602001838360200280828437600081840152601f19601f820116905080830192505050505050509192919290803590602001906401000000008111156200039457600080fd5b820183602082011115620003a757600080fd5b80359060200191846020830284011164010000000083111715620003ca57600080fd5b919080806020026020016040519081016040528093929190818152602001838360200280828437600081840152601f19601f820116905080830192505050505050509192919290803590602001906401000000008111156200042b57600080fd5b8201836020820111156200043e57600080fd5b803590602001918460208302840111640100000000831117156200046157600080fd5b919080806020026020016040519081016040528093929190818152602001838360200280828437600081840152601f19601f82011690508083019250505050505050919291929080359060200190640100000000811115620004c257600080fd5b820183602082011115620004d557600080fd5b80359060200191846020830284011164010000000083111715620004f857600080fd5b919080806020026020016040519081016040528093929190818152602001838360200280828437600081840152601f19601f82011690508083019250505050505050919291929050505062000fb5565b604051808215151515815260200191505060405180910390f35b620005a7600480360360208110156200057a57600080fd5b81019080803573ffffffffffffffffffffffffffffffffffffffff16906020019092919050505062001bf1565b005b620005b362001c7e565b604051808273ffffffffffffffffffffffffffffffffffffffff1673ffffffffffffffffffffffffffffffffffffffff16815260200191505060405180910390f35b620005ff62001ca4565b604051808273ffffffffffffffffffffffffffffffffffffffff1673ffffffffffffffffffffffffffffffffffffffff16815260200191505060405180910390f35b6200064b62001cca565b604051808273ffffffffffffffffffffffffffffffffffffffff1673ffffffffffffffffffffffffffffffffffffffff16815260200191505060405180910390f35b6200069762000ba4565b15156200070c576040517f08c379a00000000000000000000000000000000000000000000000000000000081526004018080602001828103825260208152602001807f4f776e61626c653a2063616c6c6572206973206e6f7420746865206f776e657281525060200191505060405180910390fd5b600073ffffffffffffffffffffffffffffffffffffffff166000809054906101000a900473ffffffffffffffffffffffffffffffffffffffff1673ffffffffffffffffffffffffffffffffffffffff167f8be0079c531659141344cd1fd0a4f28419497f9722a3daafe3b4186f6b6457e060405160405180910390a360008060006101000a81548173ffffffffffffffffffffffffffffffffffffffff021916908373ffffffffffffffffffffffffffffffffffffffff160217905550565b6000620007d762000ba4565b15156200084c576040517f08c379a00000000000000000000000000000000000000000000000000000000081526004018080602001828103825260208152602001807f4f776e61626c653a2063616c6c6572206973206e6f7420746865206f776e657281525060200191505060405180910390fd5b600073ffffffffffffffffffffffffffffffffffffffff16600260009054906101000a900473ffffffffffffffffffffffffffffffffffffffff1673ffffffffffffffffffffffffffffffffffffffff1614151562000913576040517f08c379a00000000000000000000000000000000000000000000000000000000081526004018080602001828103825260138152602001807f414c52454144595f494e495449414c495a45440000000000000000000000000081525060200191505060405180910390fd5b858585600160009054906101000a900473ffffffffffffffffffffffffffffffffffffffff168686604051620009499062001fe1565b808781526020018673ffffffffffffffffffffffffffffffffffffffff1673ffffffffffffffffffffffffffffffffffffffff1681526020018573ffffffffffffffffffffffffffffffffffffffff1673ffffffffffffffffffffffffffffffffffffffff1681526020018473ffffffffffffffffffffffffffffffffffffffff1673ffffffffffffffffffffffffffffffffffffffff1681526020018381526020018281526020019650505050505050604051809103906000f08015801562000a17573d6000803e3d6000fd5b50600260006101000a81548173ffffffffffffffffffffffffffffffffffffffff021916908373ffffffffffffffffffffffffffffffffffffffff160217905550600160009054906101000a900473ffffffffffffffffffffffffffffffffffffffff1673ffffffffffffffffffffffffffffffffffffffff166340c10f19600260009054906101000a900473ffffffffffffffffffffffffffffffffffffffff16601260ff16600a0a62989680026040518363ffffffff1660e01b8152600401808373ffffffffffffffffffffffffffffffffffffffff1673ffffffffffffffffffffffffffffffffffffffff16815260200182815260200192505050602060405180830381600087803b15801562000b3057600080fd5b505af115801562000b45573d6000803e3d6000fd5b505050506040513d602081101562000b5c57600080fd5b8101908080519060200190929190505050506001905095945050505050565b60008060009054906101000a900473ffffffffffffffffffffffffffffffffffffffff16905090565b60008060009054906101000a900473ffffffffffffffffffffffffffffffffffffffff1673ffffffffffffffffffffffffffffffffffffffff1662000be862001cf0565b73ffffffffffffffffffffffffffffffffffffffff1614905090565b600062000c1062000ba4565b151562000c85576040517f08c379a00000000000000000000000000000000000000000000000000000000081526004018080602001828103825260208152602001807f4f776e61626c653a2063616c6c6572206973206e6f7420746865206f776e657281525060200191505060405180910390fd5b600073ffffffffffffffffffffffffffffffffffffffff16600360009054906101000a900473ffffffffffffffffffffffffffffffffffffffff1673ffffffffffffffffffffffffffffffffffffffff1614151562000d4c576040517f08c379a00000000000000000000000000000000000000000000000000000000081526004018080602001828103825260138152602001807f414c52454144595f494e495449414c495a45440000000000000000000000000081525060200191505060405180910390fd5b858585600160009054906101000a900473ffffffffffffffffffffffffffffffffffffffff16868660405162000d829062001fe1565b808781526020018673ffffffffffffffffffffffffffffffffffffffff1673ffffffffffffffffffffffffffffffffffffffff1681526020018573ffffffffffffffffffffffffffffffffffffffff1673ffffffffffffffffffffffffffffffffffffffff1681526020018473ffffffffffffffffffffffffffffffffffffffff1673ffffffffffffffffffffffffffffffffffffffff1681526020018381526020018281526020019650505050505050604051809103906000f08015801562000e50573d6000803e3d6000fd5b50600360006101000a81548173ffffffffffffffffffffffffffffffffffffffff021916908373ffffffffffffffffffffffffffffffffffffffff160217905550600160009054906101000a900473ffffffffffffffffffffffffffffffffffffffff1673ffffffffffffffffffffffffffffffffffffffff166340c10f19600360009054906101000a900473ffffffffffffffffffffffffffffffffffffffff16601260ff16600a0a6302160ec0026040518363ffffffff1660e01b8152600401808373ffffffffffffffffffffffffffffffffffffffff1673ffffffffffffffffffffffffffffffffffffffff16815260200182815260200192505050602060405180830381600087803b15801562000f6a57600080fd5b505af115801562000f7f573d6000803e3d6000fd5b505050506040513d602081101562000f9657600080fd5b8101908080519060200190929190505050506001905095945050505050565b600062000fc162000ba4565b151562001036576040517f08c379a00000000000000000000000000000000000000000000000000000000081526004018080602001828103825260208152602001807f4f776e61626c653a2063616c6c6572206973206e6f7420746865206f776e657281525060200191505060405180910390fd5b835185511415156200104757600080fd5b815183511415156200105857600080fd5b600160009054906101000a900473ffffffffffffffffffffffffffffffffffffffff1673ffffffffffffffffffffffffffffffffffffffff166340c10f1989601260ff16600a0a6302160ec0026040518363ffffffff1660e01b8152600401808373ffffffffffffffffffffffffffffffffffffffff1673ffffffffffffffffffffffffffffffffffffffff16815260200182815260200192505050602060405180830381600087803b1580156200110f57600080fd5b505af115801562001124573d6000803e3d6000fd5b505050506040513d60208110156200113b57600080fd5b810190808051906020019092919050505050600160009054906101000a900473ffffffffffffffffffffffffffffffffffffffff1673ffffffffffffffffffffffffffffffffffffffff166340c10f1988601260ff16600a0a620f4240026040518363ffffffff1660e01b8152600401808373ffffffffffffffffffffffffffffffffffffffff1673ffffffffffffffffffffffffffffffffffffffff16815260200182815260200192505050602060405180830381600087803b1580156200120357600080fd5b505af115801562001218573d6000803e3d6000fd5b505050506040513d60208110156200122f57600080fd5b810190808051906020019092919050505050600160009054906101000a900473ffffffffffffffffffffffffffffffffffffffff1673ffffffffffffffffffffffffffffffffffffffff166340c10f1987601260ff16600a0a621e8480026040518363ffffffff1660e01b8152600401808373ffffffffffffffffffffffffffffffffffffffff1673ffffffffffffffffffffffffffffffffffffffff16815260200182815260200192505050602060405180830381600087803b158015620012f757600080fd5b505af11580156200130c573d6000803e3d6000fd5b505050506040513d60208110156200132357600080fd5b810190808051906020019092919050505050620013c4601260ff16600a0a62e4e1c002620013b5601260ff16600a0a621e848002620013a6601260ff16600a0a629896800262001397601260ff16600a0a6302160ec002601260ff16600a0a6305f5e1000262001cf890919063ffffffff16565b62001cf890919063ffffffff16565b62001cf890919063ffffffff16565b62001cf890919063ffffffff16565b600160009054906101000a900473ffffffffffffffffffffffffffffffffffffffff1673ffffffffffffffffffffffffffffffffffffffff166318160ddd6040518163ffffffff1660e01b815260040160206040518083038186803b1580156200142d57600080fd5b505afa15801562001442573d6000803e3d6000fd5b505050506040513d60208110156200145957600080fd5b8101908080519060200190929190505050141515620014e0576040517f08c379a000000000000000000000000000000000000000000000000000000000815260040180806020018281038252601e8152602001807f415641494c41424c455f46414d494c59465249454e44535f535550504c59000081525060200191505060405180910390fd5b60008090505b8551811015620016e557600086828151811015156200150157fe5b9060200190602002015190506301e133808173ffffffffffffffffffffffffffffffffffffffff16630fb5a6b46040518163ffffffff1660e01b815260040160206040518083038186803b1580156200155957600080fd5b505afa1580156200156e573d6000803e3d6000fd5b505050506040513d60208110156200158557600080fd5b8101908080519060200190929190505050141515620015a357600080fd5b600160009054906101000a900473ffffffffffffffffffffffffffffffffffffffff1673ffffffffffffffffffffffffffffffffffffffff166340c10f198884815181101515620015f057fe5b906020019060200201516200162e601260ff16600a0a8a878151811015156200161557fe5b9060200190602002015162001d4490919063ffffffff16565b6040518363ffffffff1660e01b8152600401808373ffffffffffffffffffffffffffffffffffffffff1673ffffffffffffffffffffffffffffffffffffffff16815260200182815260200192505050602060405180830381600087803b1580156200169857600080fd5b505af1158015620016ad573d6000803e3d6000fd5b505050506040513d6020811015620016c457600080fd5b810190808051906020019092919050505050508080600101915050620014e6565b5062001755601260ff16600a0a621e84800262001746601260ff16600a0a629896800262001737601260ff16600a0a6302160ec002601260ff16600a0a6305f5e1000262001cf890919063ffffffff16565b62001cf890919063ffffffff16565b62001cf890919063ffffffff16565b600160009054906101000a900473ffffffffffffffffffffffffffffffffffffffff1673ffffffffffffffffffffffffffffffffffffffff166318160ddd6040518163ffffffff1660e01b815260040160206040518083038186803b158015620017be57600080fd5b505afa158015620017d3573d6000803e3d6000fd5b505050506040513d6020811015620017ea57600080fd5b810190808051906020019092919050505014151562001871576040517f08c379a00000000000000000000000000000000000000000000000000000000081526004018080602001828103825260158152602001807f415641494c41424c455f5445414d5f535550504c59000000000000000000000081525060200191505060405180910390fd5b60008090505b835181101562001a7657600084828151811015156200189257fe5b9060200190602002015190506301e133808173ffffffffffffffffffffffffffffffffffffffff16630fb5a6b46040518163ffffffff1660e01b815260040160206040518083038186803b158015620018ea57600080fd5b505afa158015620018ff573d6000803e3d6000fd5b505050506040513d60208110156200191657600080fd5b81019080805190602001909291905050501415156200193457600080fd5b600160009054906101000a900473ffffffffffffffffffffffffffffffffffffffff1673ffffffffffffffffffffffffffffffffffffffff166340c10f1986848151811015156200198157fe5b90602001906020020151620019bf601260ff16600a0a8887815181101515620019a657fe5b9060200190602002015162001d4490919063ffffffff16565b6040518363ffffffff1660e01b8152600401808373ffffffffffffffffffffffffffffffffffffffff1673ffffffffffffffffffffffffffffffffffffffff16815260200182815260200192505050602060405180830381600087803b15801562001a2957600080fd5b505af115801562001a3e573d6000803e3d6000fd5b505050506040513d602081101562001a5557600080fd5b81019080805190602001909291905050505050808060010191505062001877565b5062001ac6601260ff16600a0a629896800262001ab7601260ff16600a0a6302160ec002601260ff16600a0a6305f5e1000262001cf890919063ffffffff16565b62001cf890919063ffffffff16565b600160009054906101000a900473ffffffffffffffffffffffffffffffffffffffff1673ffffffffffffffffffffffffffffffffffffffff166318160ddd6040518163ffffffff1660e01b815260040160206040518083038186803b15801562001b2f57600080fd5b505afa15801562001b44573d6000803e3d6000fd5b505050506040513d602081101562001b5b57600080fd5b810190808051906020019092919050505014151562001be2576040517f08c379a00000000000000000000000000000000000000000000000000000000081526004018080602001828103825260188152602001807f415641494c41424c455f41445649534f525f535550504c59000000000000000081525060200191505060405180910390fd5b60019050979650505050505050565b62001bfb62000ba4565b151562001c70576040517f08c379a00000000000000000000000000000000000000000000000000000000081526004018080602001828103825260208152602001807f4f776e61626c653a2063616c6c6572206973206e6f7420746865206f776e657281525060200191505060405180910390fd5b62001c7b8162001dd3565b50565b600360009054906101000a900473ffffffffffffffffffffffffffffffffffffffff1681565b600160009054906101000a900473ffffffffffffffffffffffffffffffffffffffff1681565b600260009054906101000a900473ffffffffffffffffffffffffffffffffffffffff1681565b600033905090565b600062001d3c83836040518060400160405280601e81526020017f536166654d6174683a207375627472616374696f6e206f766572666c6f77000081525062001f1b565b905092915050565b60008083141562001d59576000905062001dcd565b6000828402905082848281151562001d6d57fe5b0414151562001dc8576040517f08c379a0000000000000000000000000000000000000000000000000000000008152600401808060200182810382526021815260200180620049bf6021913960400191505060405180910390fd5b809150505b92915050565b600073ffffffffffffffffffffffffffffffffffffffff168173ffffffffffffffffffffffffffffffffffffffff161415151562001e5d576040517f08c379a0000000000000000000000000000000000000000000000000000000008152600401808060200182810382526026815260200180620049996026913960400191505060405180910390fd5b8073ffffffffffffffffffffffffffffffffffffffff166000809054906101000a900473ffffffffffffffffffffffffffffffffffffffff1673ffffffffffffffffffffffffffffffffffffffff167f8be0079c531659141344cd1fd0a4f28419497f9722a3daafe3b4186f6b6457e060405160405180910390a3806000806101000a81548173ffffffffffffffffffffffffffffffffffffffff021916908373ffffffffffffffffffffffffffffffffffffffff16021790555050565b6000838311158290151562001fce576040517f08c379a00000000000000000000000000000000000000000000000000000000081526004018080602001828103825283818151815260200191508051906020019080838360005b8381101562001f9257808201518184015260208101905062001f75565b50505050905090810190601f16801562001fc05780820380516001836020036101000a031916815260200191505b509250505060405180910390fd5b5060008385039050809150509392505050565b6129a98062001ff08339019056fe60806040523480156200001157600080fd5b5060405160c080620029a9833981018060405260c08110156200003357600080fd5b8101908080519060200190929190805190602001909291908051906020019092919080519060200190929190805190602001909291908051906020019092919050505081818786866200009b6200008f6200049060201b60201c565b6200049860201b60201c565b6001600260006101000a81548160ff0219169083151502179055506000831115156200012f576040517f08c379a00000000000000000000000000000000000000000000000000000000081526004018080602001828103825260148152602001807f43726f776473616c653a2072617465206973203000000000000000000000000081525060200191505060405180910390fd5b600073ffffffffffffffffffffffffffffffffffffffff168273ffffffffffffffffffffffffffffffffffffffff1614151515620001b9576040517f08c379a0000000000000000000000000000000000000000000000000000000008152600401808060200182810382526025815260200180620029846025913960400191505060405180910390fd5b600073ffffffffffffffffffffffffffffffffffffffff168173ffffffffffffffffffffffffffffffffffffffff161415151562000243576040517f08c379a0000000000000000000000000000000000000000000000000000000008152600401808060200182810382526024815260200180620028fe6024913960400191505060405180910390fd5b8260048190555081600360006101000a81548173ffffffffffffffffffffffffffffffffffffffff021916908373ffffffffffffffffffffffffffffffffffffffff16021790555080600260016101000a81548173ffffffffffffffffffffffffffffffffffffffff021916908373ffffffffffffffffffffffffffffffffffffffff1602179055505050504282101515156200032c576040517f08c379a00000000000000000000000000000000000000000000000000000000081526004018080602001828103825260338152602001806200286e6033913960400191505060405180910390fd5b818111151562000388576040517f08c379a0000000000000000000000000000000000000000000000000000000008152600401808060200182810382526037815260200180620028c76037913960400191505060405180910390fd5b816006819055508060078190555050506000620003aa6200049060201b60201c565b905080600860006101000a81548173ffffffffffffffffffffffffffffffffffffffff021916908373ffffffffffffffffffffffffffffffffffffffff1602179055508073ffffffffffffffffffffffffffffffffffffffff16600073ffffffffffffffffffffffffffffffffffffffff167f8be0079c531659141344cd1fd0a4f28419497f9722a3daafe3b4186f6b6457e060405160405180910390a3506200045a85620004f960201b60201c565b6200046b856200059260201b60201c565b151562000484576200048385620005b660201b60201c565b5b505050505050620009bc565b600033905090565b620004b38160006200064360201b6200174e1790919060201c565b8073ffffffffffffffffffffffffffffffffffffffff167f22380c05984257a1cb900161c713dd71d39e74820f1aea43bd3f1bdd2096129960405160405180910390a250565b620005096200072960201b60201c565b15156200057e576040517f08c379a00000000000000000000000000000000000000000000000000000000081526004018080602001828103825260208152602001807f4f776e61626c653a2063616c6c6572206973206e6f7420746865206f776e657281525060200191505060405180910390fd5b6200058f816200079060201b60201c565b50565b6000620005af826000620008da60201b620012581790919060201c565b9050919050565b620005d6620005ca6200049060201b60201c565b6200059260201b60201c565b15156200062f576040517f08c379a0000000000000000000000000000000000000000000000000000000008152600401808060200182810382526040815260200180620029446040913960400191505060405180910390fd5b62000640816200049860201b60201c565b50565b620006558282620008da60201b60201c565b151515620006cb576040517f08c379a000000000000000000000000000000000000000000000000000000000815260040180806020018281038252601f8152602001807f526f6c65733a206163636f756e7420616c72656164792068617320726f6c650081525060200191505060405180910390fd5b60018260000160008373ffffffffffffffffffffffffffffffffffffffff1673ffffffffffffffffffffffffffffffffffffffff16815260200190815260200160002060006101000a81548160ff0219169083151502179055505050565b6000600860009054906101000a900473ffffffffffffffffffffffffffffffffffffffff1673ffffffffffffffffffffffffffffffffffffffff16620007746200049060201b60201c565b73ffffffffffffffffffffffffffffffffffffffff1614905090565b600073ffffffffffffffffffffffffffffffffffffffff168173ffffffffffffffffffffffffffffffffffffffff16141515156200081a576040517f08c379a0000000000000000000000000000000000000000000000000000000008152600401808060200182810382526026815260200180620028a16026913960400191505060405180910390fd5b8073ffffffffffffffffffffffffffffffffffffffff16600860009054906101000a900473ffffffffffffffffffffffffffffffffffffffff1673ffffffffffffffffffffffffffffffffffffffff167f8be0079c531659141344cd1fd0a4f28419497f9722a3daafe3b4186f6b6457e060405160405180910390a380600860006101000a81548173ffffffffffffffffffffffffffffffffffffffff021916908373ffffffffffffffffffffffffffffffffffffffff16021790555050565b60008073ffffffffffffffffffffffffffffffffffffffff168273ffffffffffffffffffffffffffffffffffffffff161415151562000965576040517f08c379a0000000000000000000000000000000000000000000000000000000008152600401808060200182810382526022815260200180620029226022913960400191505060405180910390fd5b8260000160008373ffffffffffffffffffffffffffffffffffffffff1673ffffffffffffffffffffffffffffffffffffffff16815260200190815260200160002060009054906101000a900460ff16905092915050565b611ea280620009cc6000396000f3fe6080604052600436106101405760003560e01c8063521eb273116100b6578063b8d914161161006f578063b8d914161461059f578063bb5f747b146105fa578063d6cd947314610663578063ec8ac4d81461067a578063f2fde38b146106be578063fc0c546a1461070f57610140565b8063521eb2731461042f578063715018a6146104865780637362d9c81461049d5780638da5cb5b146104ee5780638f32d59b14610545578063b7a8807c1461057457610140565b80633af32abf116101085780633af32abf146103135780634042b66f1461037c57806344df8e70146103a757806347535d7b146103be5780634b6753bc146103ed5780634c5a628c1461041857610140565b806310154bad146101525780631515bc2b146101a3578063291d9549146101d25780632a4bc321146102235780632c4e722e146102e8575b61015061014b610766565b61076e565b005b34801561015e57600080fd5b506101a16004803603602081101561017557600080fd5b81019080803573ffffffffffffffffffffffffffffffffffffffff1690602001909291905050506108fe565b005b3480156101af57600080fd5b506101b8610971565b604051808215151515815260200191505060405180910390f35b3480156101de57600080fd5b50610221600480360360208110156101f557600080fd5b81019080803573ffffffffffffffffffffffffffffffffffffffff16906020019092919050505061097d565b005b34801561022f57600080fd5b506102e66004803603602081101561024657600080fd5b810190808035906020019064010000000081111561026357600080fd5b82018360208201111561027557600080fd5b8035906020019184602083028401116401000000008311171561029757600080fd5b919080806020026020016040519081016040528093929190818152602001838360200280828437600081840152601f19601f8201169050808301925050505050505091929192905050506109f0565b005b3480156102f457600080fd5b506102fd610a97565b6040518082815260200191505060405180910390f35b34801561031f57600080fd5b506103626004803603602081101561033657600080fd5b81019080803573ffffffffffffffffffffffffffffffffffffffff169060200190929190505050610aa1565b604051808215151515815260200191505060405180910390f35b34801561038857600080fd5b50610391610abe565b6040518082815260200191505060405180910390f35b3480156103b357600080fd5b506103bc610ac8565b005b3480156103ca57600080fd5b506103d3610c0c565b604051808215151515815260200191505060405180910390f35b3480156103f957600080fd5b50610402610c27565b6040518082815260200191505060405180910390f35b34801561042457600080fd5b5061042d610c31565b005b34801561043b57600080fd5b50610444610c43565b604051808273ffffffffffffffffffffffffffffffffffffffff1673ffffffffffffffffffffffffffffffffffffffff16815260200191505060405180910390f35b34801561049257600080fd5b5061049b610c6d565b005b3480156104a957600080fd5b506104ec600480360360208110156104c057600080fd5b81019080803573ffffffffffffffffffffffffffffffffffffffff169060200190929190505050610daa565b005b3480156104fa57600080fd5b50610503610e1d565b604051808273ffffffffffffffffffffffffffffffffffffffff1673ffffffffffffffffffffffffffffffffffffffff16815260200191505060405180910390f35b34801561055157600080fd5b5061055a610e47565b604051808215151515815260200191505060405180910390f35b34801561058057600080fd5b50610589610ea6565b6040518082815260200191505060405180910390f35b3480156105ab57600080fd5b506105f8600480360360408110156105c257600080fd5b81019080803573ffffffffffffffffffffffffffffffffffffffff16906020019092919080359060200190929190505050610eb0565b005b34801561060657600080fd5b506106496004803603602081101561061d57600080fd5b81019080803573ffffffffffffffffffffffffffffffffffffffff169060200190929190505050610f76565b604051808215151515815260200191505060405180910390f35b34801561066f57600080fd5b50610678610f93565b005b6106bc6004803603602081101561069057600080fd5b81019080803573ffffffffffffffffffffffffffffffffffffffff16906020019092919050505061076e565b005b3480156106ca57600080fd5b5061070d600480360360208110156106e157600080fd5b81019080803573ffffffffffffffffffffffffffffffffffffffff169060200190929190505050610fa5565b005b34801561071b57600080fd5b5061072461102d565b604051808273ffffffffffffffffffffffffffffffffffffffff1673ffffffffffffffffffffffffffffffffffffffff16815260200191505060405180910390f35b600033905090565b600260009054906101000a900460ff1615156107f2576040517f08c379a000000000000000000000000000000000000000000000000000000000815260040180806020018281038252601f8152602001807f5265656e7472616e637947756172643a207265656e7472616e742063616c6c0081525060200191505060405180910390fd5b6000600260006101000a81548160ff021916908315150217905550600034905061081c8282611057565b60006108278261107b565b905061083e8260055461109990919063ffffffff16565b60058190555061084e8382611123565b8273ffffffffffffffffffffffffffffffffffffffff1661086d610766565b73ffffffffffffffffffffffffffffffffffffffff167f6faf93231a456e552dbc9961f58d9713ee4f2e69d15f1975b050ef0911053a7b8484604051808381526020018281526020019250505060405180910390a36108cc8383611131565b6108d4611135565b6108de83836111a0565b50506001600260006101000a81548160ff02191690831515021790555050565b61090e610909610766565b610f76565b1515610965576040517f08c379a0000000000000000000000000000000000000000000000000000000008152600401808060200182810382526040815260200180611de36040913960400191505060405180910390fd5b61096e816111a4565b50565b60006007544211905090565b61098d610988610766565b610f76565b15156109e4576040517f08c379a0000000000000000000000000000000000000000000000000000000008152600401808060200182810382526040815260200180611de36040913960400191505060405180910390fd5b6109ed816111fe565b50565b610a006109fb610766565b610f76565b1515610a57576040517f08c379a0000000000000000000000000000000000000000000000000000000008152600401808060200182810382526040815260200180611de36040913960400191505060405180910390fd5b60008090505b8151811015610a9357610a868282815181101515610a7757fe5b906020019060200201516111a4565b8080600101915050610a5d565b5050565b6000600454905090565b6000610ab782600161125890919063ffffffff16565b9050919050565b6000600554905090565b610ad0610971565b1515610adb57600080fd5b6000610ae561102d565b90508073ffffffffffffffffffffffffffffffffffffffff166342966c688273ffffffffffffffffffffffffffffffffffffffff166370a08231306040518263ffffffff1660e01b8152600401808273ffffffffffffffffffffffffffffffffffffffff1673ffffffffffffffffffffffffffffffffffffffff16815260200191505060206040518083038186803b158015610b8057600080fd5b505afa158015610b94573d6000803e3d6000fd5b505050506040513d6020811015610baa57600080fd5b81019080805190602001909291905050506040518263ffffffff1660e01b815260040180828152602001915050600060405180830381600087803b158015610bf157600080fd5b505af1158015610c05573d6000803e3d6000fd5b5050505050565b60006006544210158015610c2257506007544211155b905090565b6000600754905090565b610c41610c3c610766565b611338565b565b6000600360009054906101000a900473ffffffffffffffffffffffffffffffffffffffff16905090565b610c75610e47565b1515610ce9576040517f08c379a00000000000000000000000000000000000000000000000000000000081526004018080602001828103825260208152602001807f4f776e61626c653a2063616c6c6572206973206e6f7420746865206f776e657281525060200191505060405180910390fd5b600073ffffffffffffffffffffffffffffffffffffffff16600860009054906101000a900473ffffffffffffffffffffffffffffffffffffffff1673ffffffffffffffffffffffffffffffffffffffff167f8be0079c531659141344cd1fd0a4f28419497f9722a3daafe3b4186f6b6457e060405160405180910390a36000600860006101000a81548173ffffffffffffffffffffffffffffffffffffffff021916908373ffffffffffffffffffffffffffffffffffffffff160217905550565b610dba610db5610766565b610f76565b1515610e11576040517f08c379a0000000000000000000000000000000000000000000000000000000008152600401808060200182810382526040815260200180611de36040913960400191505060405180910390fd5b610e1a81611392565b50565b6000600860009054906101000a900473ffffffffffffffffffffffffffffffffffffffff16905090565b6000600860009054906101000a900473ffffffffffffffffffffffffffffffffffffffff1673ffffffffffffffffffffffffffffffffffffffff16610e8a610766565b73ffffffffffffffffffffffffffffffffffffffff1614905090565b6000600654905090565b610eb8610e47565b1515610f2c576040517f08c379a00000000000000000000000000000000000000000000000000000000081526004018080602001828103825260208152602001807f4f776e61626c653a2063616c6c6572206973206e6f7420746865206f776e657281525060200191505060405180910390fd5b610f34610971565b151515610f4057600080fd5b610f728282610f4d61102d565b73ffffffffffffffffffffffffffffffffffffffff166113ec9092919063ffffffff16565b5050565b6000610f8c82600061125890919063ffffffff16565b9050919050565b610fa3610f9e610766565b6111fe565b565b610fad610e47565b1515611021576040517f08c379a00000000000000000000000000000000000000000000000000000000081526004018080602001828103825260208152602001807f4f776e61626c653a2063616c6c6572206973206e6f7420746865206f776e657281525060200191505060405180910390fd5b61102a816114bd565b50565b6000600260019054906101000a900473ffffffffffffffffffffffffffffffffffffffff16905090565b66b1a2bc2ec50000811015151561106d57600080fd5b6110778282611605565b5050565b60006110926004548361167390919063ffffffff16565b9050919050565b6000808284019050838110151515611119576040517f08c379a000000000000000000000000000000000000000000000000000000000815260040180806020018281038252601b8152602001807f536166654d6174683a206164646974696f6e206f766572666c6f77000000000081525060200191505060405180910390fd5b8091505092915050565b61112d82826116fd565b5050565b5050565b600360009054906101000a900473ffffffffffffffffffffffffffffffffffffffff1673ffffffffffffffffffffffffffffffffffffffff166108fc349081150290604051600060405180830381858888f1935050505015801561119d573d6000803e3d6000fd5b50565b5050565b6111b881600161174e90919063ffffffff16565b8073ffffffffffffffffffffffffffffffffffffffff167fee1504a83b6d4a361f4c1dc78ab59bfa30d6a3b6612c403e86bb01ef2984295f60405160405180910390a250565b61121281600161182b90919063ffffffff16565b8073ffffffffffffffffffffffffffffffffffffffff167f270d9b30cf5b0793bbfd54c9d5b94aeb49462b8148399000265144a8722da6b660405160405180910390a250565b60008073ffffffffffffffffffffffffffffffffffffffff168273ffffffffffffffffffffffffffffffffffffffff16141515156112e1576040517f08c379a0000000000000000000000000000000000000000000000000000000008152600401808060200182810382526022815260200180611dc16022913960400191505060405180910390fd5b8260000160008373ffffffffffffffffffffffffffffffffffffffff1673ffffffffffffffffffffffffffffffffffffffff16815260200190815260200160002060009054906101000a900460ff16905092915050565b61134c81600061182b90919063ffffffff16565b8073ffffffffffffffffffffffffffffffffffffffff167f0a8eb35e5ca14b3d6f28e4abf2f128dbab231a58b56e89beb5d636115001e16560405160405180910390a250565b6113a681600061174e90919063ffffffff16565b8073ffffffffffffffffffffffffffffffffffffffff167f22380c05984257a1cb900161c713dd71d39e74820f1aea43bd3f1bdd2096129960405160405180910390a250565b6114b8838473ffffffffffffffffffffffffffffffffffffffff1663a9059cbb905060e01b8484604051602401808373ffffffffffffffffffffffffffffffffffffffff1673ffffffffffffffffffffffffffffffffffffffff16815260200182815260200192505050604051602081830303815290604052907bffffffffffffffffffffffffffffffffffffffffffffffffffffffff19166020820180517bffffffffffffffffffffffffffffffffffffffffffffffffffffffff83818316178352505050506118ea565b505050565b600073ffffffffffffffffffffffffffffffffffffffff168173ffffffffffffffffffffffffffffffffffffffff1614151515611545576040517f08c379a0000000000000000000000000000000000000000000000000000000008152600401808060200182810382526026815260200180611d596026913960400191505060405180910390fd5b8073ffffffffffffffffffffffffffffffffffffffff16600860009054906101000a900473ffffffffffffffffffffffffffffffffffffffff1673ffffffffffffffffffffffffffffffffffffffff167f8be0079c531659141344cd1fd0a4f28419497f9722a3daafe3b4186f6b6457e060405160405180910390a380600860006101000a81548173ffffffffffffffffffffffffffffffffffffffff021916908373ffffffffffffffffffffffffffffffffffffffff16021790555050565b61160e82610aa1565b1515611665576040517f08c379a0000000000000000000000000000000000000000000000000000000008152600401808060200182810382526041815260200180611d186041913960600191505060405180910390fd5b61166f8282611b3d565b5050565b60008083141561168657600090506116f7565b6000828402905082848281151561169957fe5b041415156116f2576040517f08c379a0000000000000000000000000000000000000000000000000000000008152600401808060200182810382526021815260200180611da06021913960400191505060405180910390fd5b809150505b92915050565b61174a8282600260019054906101000a900473ffffffffffffffffffffffffffffffffffffffff1673ffffffffffffffffffffffffffffffffffffffff166113ec9092919063ffffffff16565b5050565b6117588282611258565b1515156117cd576040517f08c379a000000000000000000000000000000000000000000000000000000000815260040180806020018281038252601f8152602001807f526f6c65733a206163636f756e7420616c72656164792068617320726f6c650081525060200191505060405180910390fd5b60018260000160008373ffffffffffffffffffffffffffffffffffffffff1673ffffffffffffffffffffffffffffffffffffffff16815260200190815260200160002060006101000a81548160ff0219169083151502179055505050565b6118358282611258565b151561188c576040517f08c379a0000000000000000000000000000000000000000000000000000000008152600401808060200182810382526021815260200180611d7f6021913960400191505060405180910390fd5b60008260000160008373ffffffffffffffffffffffffffffffffffffffff1673ffffffffffffffffffffffffffffffffffffffff16815260200190815260200160002060006101000a81548160ff0219169083151502179055505050565b6119098273ffffffffffffffffffffffffffffffffffffffff16611bc7565b151561197d576040517f08c379a000000000000000000000000000000000000000000000000000000000815260040180806020018281038252601f8152602001807f5361666545524332303a2063616c6c20746f206e6f6e2d636f6e74726163740081525060200191505060405180910390fd5b600060608373ffffffffffffffffffffffffffffffffffffffff16836040518082805190602001908083835b6020831015156119ce57805182526020820191506020810190506020830392506119a9565b6001836020036101000a0380198251168184511680821785525050505050509050019150506000604051808303816000865af19150503d8060008114611a30576040519150601f19603f3d011682016040523d82523d6000602084013e611a35565b606091505b5091509150811515611aaf576040517f08c379a00000000000000000000000000000000000000000000000000000000081526004018080602001828103825260208152602001807f5361666545524332303a206c6f772d6c6576656c2063616c6c206661696c656481525060200191505060405180910390fd5b600081511115611b3757808060200190516020811015611ace57600080fd5b81019080805190602001909291905050501515611b36576040517f08c379a000000000000000000000000000000000000000000000000000000000815260040180806020018281038252602a815260200180611e4d602a913960400191505060405180910390fd5b5b50505050565b611b45610c0c565b1515611bb9576040517f08c379a00000000000000000000000000000000000000000000000000000000081526004018080602001828103825260188152602001807f54696d656443726f776473616c653a206e6f74206f70656e000000000000000081525060200191505060405180910390fd5b611bc38282611c12565b5050565b60008060007fc5d2460186f7233c927e7db2dcc703c0e500b653ca82273b7bfad8045d85a47060001b9050833f9150808214158015611c0957506000801b8214155b92505050919050565b600073ffffffffffffffffffffffffffffffffffffffff168273ffffffffffffffffffffffffffffffffffffffff1614151515611c9a576040517f08c379a000000000000000000000000000000000000000000000000000000000815260040180806020018281038252602a815260200180611e23602a913960400191505060405180910390fd5b60008114151515611d13576040517f08c379a00000000000000000000000000000000000000000000000000000000081526004018080602001828103825260198152602001807f43726f776473616c653a20776569416d6f756e7420697320300000000000000081525060200191505060405180910390fd5b505056fe57686974656c69737443726f776473616c653a2062656e656669636961727920646f65736e27742068617665207468652057686974656c697374656420726f6c654f776e61626c653a206e6577206f776e657220697320746865207a65726f2061646472657373526f6c65733a206163636f756e7420646f6573206e6f74206861766520726f6c65536166654d6174683a206d756c7469706c69636174696f6e206f766572666c6f77526f6c65733a206163636f756e7420697320746865207a65726f206164647265737357686974656c69737441646d696e526f6c653a2063616c6c657220646f6573206e6f742068617665207468652057686974656c69737441646d696e20726f6c6543726f776473616c653a2062656e656669636961727920697320746865207a65726f20616464726573735361666545524332303a204552433230206f7065726174696f6e20646964206e6f742073756363656564a165627a7a723058206578f09fa0d15b84c4fbd43fa01215e538c472a0e4e4dca3352ba47cdb9481df002954696d656443726f776473616c653a206f70656e696e672074696d65206973206265666f72652063757272656e742074696d654f776e61626c653a206e6577206f776e657220697320746865207a65726f206164647265737354696d656443726f776473616c653a206f70656e696e672074696d65206973206e6f74206265666f726520636c6f73696e672074696d6543726f776473616c653a20746f6b656e20697320746865207a65726f2061646472657373526f6c65733a206163636f756e7420697320746865207a65726f206164647265737357686974656c69737441646d696e526f6c653a2063616c6c657220646f6573206e6f742068617665207468652057686974656c69737441646d696e20726f6c6543726f776473616c653a2077616c6c657420697320746865207a65726f20616464726573734f776e61626c653a206e6577206f776e657220697320746865207a65726f2061646472657373536166654d6174683a206d756c7469706c69636174696f6e206f766572666c6f77a165627a7a72305820451dcdd7544cc0189d9d77b60063c6b61ef3720f344fa65b63a582dd33561a87002960806040523480156200001157600080fd5b5060405160208062002ced833981018060405260208110156200003357600080fd5b81019080805190602001909291905050506a52b7d2dcc80cd2e40000006040518060400160405280600a81526020017f5072696d6120426c7565000000000000000000000000000000000000000000008152506040518060400160405280600481526020017f50524d420000000000000000000000000000000000000000000000000000000081525060128260039080519060200190620000d6929190620006f3565b508160049080519060200190620000ef929190620006f3565b5080600560006101000a81548160ff021916908360ff1602179055505050506200012e620001226200027860201b60201c565b6200028060201b60201c565b600081111515620001a7576040517f08c379a00000000000000000000000000000000000000000000000000000000081526004018080602001828103825260158152602001807f45524332304361707065643a206361702069732030000000000000000000000081525060200191505060405180910390fd5b80600781905550506000620001c16200027860201b60201c565b905080600860006101000a81548173ffffffffffffffffffffffffffffffffffffffff021916908373ffffffffffffffffffffffffffffffffffffffff1602179055508073ffffffffffffffffffffffffffffffffffffffff16600073ffffffffffffffffffffffffffffffffffffffff167f8be0079c531659141344cd1fd0a4f28419497f9722a3daafe3b4186f6b6457e060405160405180910390a3506200027181620002e160201b60201c565b50620007a2565b600033905090565b6200029b8160066200037a60201b6200212a1790919060201c565b8073ffffffffffffffffffffffffffffffffffffffff167f6ae172837ea30b801fbfcdd4108aa1d5bf8ff775444fd70256b44e6bf3dfc3f660405160405180910390a250565b620002f16200046060201b60201c565b151562000366576040517f08c379a00000000000000000000000000000000000000000000000000000000081526004018080602001828103825260208152602001807f4f776e61626c653a2063616c6c6572206973206e6f7420746865206f776e657281525060200191505060405180910390fd5b6200037781620004c760201b60201c565b50565b6200038c82826200061160201b60201c565b15151562000402576040517f08c379a000000000000000000000000000000000000000000000000000000000815260040180806020018281038252601f8152602001807f526f6c65733a206163636f756e7420616c72656164792068617320726f6c650081525060200191505060405180910390fd5b60018260000160008373ffffffffffffffffffffffffffffffffffffffff1673ffffffffffffffffffffffffffffffffffffffff16815260200190815260200160002060006101000a81548160ff0219169083151502179055505050565b6000600860009054906101000a900473ffffffffffffffffffffffffffffffffffffffff1673ffffffffffffffffffffffffffffffffffffffff16620004ab6200027860201b60201c565b73ffffffffffffffffffffffffffffffffffffffff1614905090565b600073ffffffffffffffffffffffffffffffffffffffff168173ffffffffffffffffffffffffffffffffffffffff161415151562000551576040517f08c379a000000000000000000000000000000000000000000000000000000000815260040180806020018281038252602681526020018062002ca56026913960400191505060405180910390fd5b8073ffffffffffffffffffffffffffffffffffffffff16600860009054906101000a900473ffffffffffffffffffffffffffffffffffffffff1673ffffffffffffffffffffffffffffffffffffffff167f8be0079c531659141344cd1fd0a4f28419497f9722a3daafe3b4186f6b6457e060405160405180910390a380600860006101000a81548173ffffffffffffffffffffffffffffffffffffffff021916908373ffffffffffffffffffffffffffffffffffffffff16021790555050565b60008073ffffffffffffffffffffffffffffffffffffffff168273ffffffffffffffffffffffffffffffffffffffff16141515156200069c576040517f08c379a000000000000000000000000000000000000000000000000000000000815260040180806020018281038252602281526020018062002ccb6022913960400191505060405180910390fd5b8260000160008373ffffffffffffffffffffffffffffffffffffffff1673ffffffffffffffffffffffffffffffffffffffff16815260200190815260200160002060009054906101000a900460ff16905092915050565b828054600181600116156101000203166002900490600052602060002090601f016020900481019282601f106200073657805160ff191683800117855562000767565b8280016001018555821562000767579182015b828111156200076657825182559160200191906001019062000749565b5b5090506200077691906200077a565b5090565b6200079f91905b808211156200079b57600081600090555060010162000781565b5090565b90565b6124f380620007b26000396000f3fe608060405234801561001057600080fd5b506004361061014d5760003560e01c8063715018a6116100c3578063986502751161007c5780639865027514610642578063a457c2d71461064c578063a9059cbb146106b2578063aa271e1a14610718578063dd62ed3e14610774578063f2fde38b146107ec5761014d565b8063715018a6146104b757806379cc6790146104c15780638da5cb5b1461050f5780638f32d59b1461055957806395d89b411461057b578063983b2d56146105fe5761014d565b8063355274ea11610115578063355274ea14610303578063395093511461032157806340c10f191461038757806342966c68146103ed5780636883c5a91461041b57806370a082311461045f5761014d565b806306fdde0314610152578063095ea7b3146101d557806318160ddd1461023b57806323b872dd14610259578063313ce567146102df575b600080fd5b61015a610830565b6040518080602001828103825283818151815260200191508051906020019080838360005b8381101561019a57808201518184015260208101905061017f565b50505050905090810190601f1680156101c75780820380516001836020036101000a031916815260200191505b509250505060405180910390f35b610221600480360360408110156101eb57600080fd5b81019080803573ffffffffffffffffffffffffffffffffffffffff169060200190929190803590602001909291905050506108d2565b604051808215151515815260200191505060405180910390f35b6102436108f0565b6040518082815260200191505060405180910390f35b6102c56004803603606081101561026f57600080fd5b81019080803573ffffffffffffffffffffffffffffffffffffffff169060200190929190803573ffffffffffffffffffffffffffffffffffffffff169060200190929190803590602001909291905050506108fa565b604051808215151515815260200191505060405180910390f35b6102e76109d3565b604051808260ff1660ff16815260200191505060405180910390f35b61030b6109ea565b6040518082815260200191505060405180910390f35b61036d6004803603604081101561033757600080fd5b81019080803573ffffffffffffffffffffffffffffffffffffffff169060200190929190803590602001909291905050506109f4565b604051808215151515815260200191505060405180910390f35b6103d36004803603604081101561039d57600080fd5b81019080803573ffffffffffffffffffffffffffffffffffffffff16906020019092919080359060200190929190505050610aa7565b604051808215151515815260200191505060405180910390f35b6104196004803603602081101561040357600080fd5b8101908080359060200190929190505050610b5f565b005b61045d6004803603602081101561043157600080fd5b81019080803573ffffffffffffffffffffffffffffffffffffffff169060200190929190505050610b73565b005b6104a16004803603602081101561047557600080fd5b81019080803573ffffffffffffffffffffffffffffffffffffffff169060200190929190505050610d86565b6040518082815260200191505060405180910390f35b6104bf610dce565b005b61050d600480360360408110156104d757600080fd5b81019080803573ffffffffffffffffffffffffffffffffffffffff16906020019092919080359060200190929190505050610f0b565b005b610517610f19565b604051808273ffffffffffffffffffffffffffffffffffffffff1673ffffffffffffffffffffffffffffffffffffffff16815260200191505060405180910390f35b610561610f43565b604051808215151515815260200191505060405180910390f35b610583610fa2565b6040518080602001828103825283818151815260200191508051906020019080838360005b838110156105c35780820151818401526020810190506105a8565b50505050905090810190601f1680156105f05780820380516001836020036101000a031916815260200191505b509250505060405180910390f35b6106406004803603602081101561061457600080fd5b81019080803573ffffffffffffffffffffffffffffffffffffffff169060200190929190505050611044565b005b61064a6110b7565b005b6106986004803603604081101561066257600080fd5b81019080803573ffffffffffffffffffffffffffffffffffffffff169060200190929190803590602001909291905050506110c9565b604051808215151515815260200191505060405180910390f35b6106fe600480360360408110156106c857600080fd5b81019080803573ffffffffffffffffffffffffffffffffffffffff16906020019092919080359060200190929190505050611196565b604051808215151515815260200191505060405180910390f35b61075a6004803603602081101561072e57600080fd5b81019080803573ffffffffffffffffffffffffffffffffffffffff1690602001909291905050506111e8565b604051808215151515815260200191505060405180910390f35b6107d66004803603604081101561078a57600080fd5b81019080803573ffffffffffffffffffffffffffffffffffffffff169060200190929190803573ffffffffffffffffffffffffffffffffffffffff169060200190929190505050611205565b6040518082815260200191505060405180910390f35b61082e6004803603602081101561080257600080fd5b81019080803573ffffffffffffffffffffffffffffffffffffffff16906020019092919050505061128c565b005b606060038054600181600116156101000203166002900480601f0160208091040260200160405190810160405280929190818152602001828054600181600116156101000203166002900480156108c85780601f1061089d576101008083540402835291602001916108c8565b820191906000526020600020905b8154815290600101906020018083116108ab57829003601f168201915b5050505050905090565b60006108e66108df611314565b848461131c565b6001905092915050565b6000600254905090565b6000610907848484611517565b6109c884610913611314565b6109c3856040518060600160405280602881526020016123cb60289139600160008b73ffffffffffffffffffffffffffffffffffffffff1673ffffffffffffffffffffffffffffffffffffffff1681526020019081526020016000206000610979611314565b73ffffffffffffffffffffffffffffffffffffffff1673ffffffffffffffffffffffffffffffffffffffff168152602001908152602001600020546117d19092919063ffffffff16565b61131c565b600190509392505050565b6000600560009054906101000a900460ff16905090565b6000600754905090565b6000610a9d610a01611314565b84610a988560016000610a12611314565b73ffffffffffffffffffffffffffffffffffffffff1673ffffffffffffffffffffffffffffffffffffffff16815260200190815260200160002060008973ffffffffffffffffffffffffffffffffffffffff1673ffffffffffffffffffffffffffffffffffffffff1681526020019081526020016000205461189390919063ffffffff16565b61131c565b6001905092915050565b6000610ab9610ab4611314565b6111e8565b1515610b10576040517f08c379a000000000000000000000000000000000000000000000000000000000815260040180806020018281038252603081526020018061237a6030913960400191505060405180910390fd5b3073ffffffffffffffffffffffffffffffffffffffff168373ffffffffffffffffffffffffffffffffffffffff1614151515610b4b57600080fd5b610b55838361191d565b6001905092915050565b610b70610b6a611314565b826119be565b50565b610b7b610f43565b1515610bef576040517f08c379a00000000000000000000000000000000000000000000000000000000081526004018080602001828103825260208152602001807f4f776e61626c653a2063616c6c6572206973206e6f7420746865206f776e657281525060200191505060405180910390fd5b600081905060008173ffffffffffffffffffffffffffffffffffffffff166370a08231306040518263ffffffff1660e01b8152600401808273ffffffffffffffffffffffffffffffffffffffff1673ffffffffffffffffffffffffffffffffffffffff16815260200191505060206040518083038186803b158015610c7357600080fd5b505afa158015610c87573d6000803e3d6000fd5b505050506040513d6020811015610c9d57600080fd5b810190808051906020019092919050505090506000811415610cbe57600080fd5b8173ffffffffffffffffffffffffffffffffffffffff1663a9059cbb33836040518363ffffffff1660e01b8152600401808373ffffffffffffffffffffffffffffffffffffffff1673ffffffffffffffffffffffffffffffffffffffff16815260200182815260200192505050602060405180830381600087803b158015610d4557600080fd5b505af1158015610d59573d6000803e3d6000fd5b505050506040513d6020811015610d6f57600080fd5b810190808051906020019092919050505050505050565b60008060008373ffffffffffffffffffffffffffffffffffffffff1673ffffffffffffffffffffffffffffffffffffffff168152602001908152602001600020549050919050565b610dd6610f43565b1515610e4a576040517f08c379a00000000000000000000000000000000000000000000000000000000081526004018080602001828103825260208152602001807f4f776e61626c653a2063616c6c6572206973206e6f7420746865206f776e657281525060200191505060405180910390fd5b600073ffffffffffffffffffffffffffffffffffffffff16600860009054906101000a900473ffffffffffffffffffffffffffffffffffffffff1673ffffffffffffffffffffffffffffffffffffffff167f8be0079c531659141344cd1fd0a4f28419497f9722a3daafe3b4186f6b6457e060405160405180910390a36000600860006101000a81548173ffffffffffffffffffffffffffffffffffffffff021916908373ffffffffffffffffffffffffffffffffffffffff160217905550565b610f158282611b78565b5050565b6000600860009054906101000a900473ffffffffffffffffffffffffffffffffffffffff16905090565b6000600860009054906101000a900473ffffffffffffffffffffffffffffffffffffffff1673ffffffffffffffffffffffffffffffffffffffff16610f86611314565b73ffffffffffffffffffffffffffffffffffffffff1614905090565b606060048054600181600116156101000203166002900480601f01602080910402602001604051908101604052809291908181526020018280546001816001161561010002031660029004801561103a5780601f1061100f5761010080835404028352916020019161103a565b820191906000526020600020905b81548152906001019060200180831161101d57829003601f168201915b5050505050905090565b61105461104f611314565b6111e8565b15156110ab576040517f08c379a000000000000000000000000000000000000000000000000000000000815260040180806020018281038252603081526020018061237a6030913960400191505060405180910390fd5b6110b481611c47565b50565b6110c76110c2611314565b611ca1565b565b600061118c6110d6611314565b84611187856040518060600160405280602581526020016124a36025913960016000611100611314565b73ffffffffffffffffffffffffffffffffffffffff1673ffffffffffffffffffffffffffffffffffffffff16815260200190815260200160002060008a73ffffffffffffffffffffffffffffffffffffffff1673ffffffffffffffffffffffffffffffffffffffff168152602001908152602001600020546117d19092919063ffffffff16565b61131c565b6001905092915050565b60003073ffffffffffffffffffffffffffffffffffffffff168373ffffffffffffffffffffffffffffffffffffffff16141515156111d357600080fd5b6111de338484611517565b6001905092915050565b60006111fe826006611cfb90919063ffffffff16565b9050919050565b6000600160008473ffffffffffffffffffffffffffffffffffffffff1673ffffffffffffffffffffffffffffffffffffffff16815260200190815260200160002060008373ffffffffffffffffffffffffffffffffffffffff1673ffffffffffffffffffffffffffffffffffffffff16815260200190815260200160002054905092915050565b611294610f43565b1515611308576040517f08c379a00000000000000000000000000000000000000000000000000000000081526004018080602001828103825260208152602001807f4f776e61626c653a2063616c6c6572206973206e6f7420746865206f776e657281525060200191505060405180910390fd5b61131181611ddb565b50565b600033905090565b600073ffffffffffffffffffffffffffffffffffffffff168373ffffffffffffffffffffffffffffffffffffffff16141515156113a4576040517f08c379a000000000000000000000000000000000000000000000000000000000815260040180806020018281038252602481526020018061247f6024913960400191505060405180910390fd5b600073ffffffffffffffffffffffffffffffffffffffff168273ffffffffffffffffffffffffffffffffffffffff161415151561142c576040517f08c379a00000000000000000000000000000000000000000000000000000000081526004018080602001828103825260228152602001806123326022913960400191505060405180910390fd5b80600160008573ffffffffffffffffffffffffffffffffffffffff1673ffffffffffffffffffffffffffffffffffffffff16815260200190815260200160002060008473ffffffffffffffffffffffffffffffffffffffff1673ffffffffffffffffffffffffffffffffffffffff168152602001908152602001600020819055508173ffffffffffffffffffffffffffffffffffffffff168373ffffffffffffffffffffffffffffffffffffffff167f8c5be1e5ebec7d5bd14f71427d1e84f3dd0314c0f7b2291e5b200ac8c7c3b925836040518082815260200191505060405180910390a3505050565b600073ffffffffffffffffffffffffffffffffffffffff168373ffffffffffffffffffffffffffffffffffffffff161415151561159f576040517f08c379a000000000000000000000000000000000000000000000000000000000815260040180806020018281038252602581526020018061245a6025913960400191505060405180910390fd5b600073ffffffffffffffffffffffffffffffffffffffff168273ffffffffffffffffffffffffffffffffffffffff1614151515611627576040517f08c379a00000000000000000000000000000000000000000000000000000000081526004018080602001828103825260238152602001806122c76023913960400191505060405180910390fd5b61169281604051806060016040528060268152602001612354602691396000808773ffffffffffffffffffffffffffffffffffffffff1673ffffffffffffffffffffffffffffffffffffffff168152602001908152602001600020546117d19092919063ffffffff16565b6000808573ffffffffffffffffffffffffffffffffffffffff1673ffffffffffffffffffffffffffffffffffffffff16815260200190815260200160002081905550611725816000808573ffffffffffffffffffffffffffffffffffffffff1673ffffffffffffffffffffffffffffffffffffffff1681526020019081526020016000205461189390919063ffffffff16565b6000808473ffffffffffffffffffffffffffffffffffffffff1673ffffffffffffffffffffffffffffffffffffffff168152602001908152602001600020819055508173ffffffffffffffffffffffffffffffffffffffff168373ffffffffffffffffffffffffffffffffffffffff167fddf252ad1be2c89b69c2b068fc378daa952ba7f163c4a11628f55a4df523b3ef836040518082815260200191505060405180910390a3505050565b60008383111582901515611880576040517f08c379a00000000000000000000000000000000000000000000000000000000081526004018080602001828103825283818151815260200191508051906020019080838360005b8381101561184557808201518184015260208101905061182a565b50505050905090810190601f1680156118725780820380516001836020036101000a031916815260200191505b509250505060405180910390fd5b5060008385039050809150509392505050565b6000808284019050838110151515611913576040517f08c379a000000000000000000000000000000000000000000000000000000000815260040180806020018281038252601b8152602001807f536166654d6174683a206164646974696f6e206f766572666c6f77000000000081525060200191505060405180910390fd5b8091505092915050565b60075461193a8261192c6108f0565b61189390919063ffffffff16565b111515156119b0576040517f08c379a00000000000000000000000000000000000000000000000000000000081526004018080602001828103825260198152602001807f45524332304361707065643a206361702065786365656465640000000000000081525060200191505060405180910390fd5b6119ba8282611f23565b5050565b600073ffffffffffffffffffffffffffffffffffffffff168273ffffffffffffffffffffffffffffffffffffffff1614151515611a46576040517f08c379a00000000000000000000000000000000000000000000000000000000081526004018080602001828103825260218152602001806124396021913960400191505060405180910390fd5b611ab1816040518060600160405280602281526020016122ea602291396000808673ffffffffffffffffffffffffffffffffffffffff1673ffffffffffffffffffffffffffffffffffffffff168152602001908152602001600020546117d19092919063ffffffff16565b6000808473ffffffffffffffffffffffffffffffffffffffff1673ffffffffffffffffffffffffffffffffffffffff16815260200190815260200160002081905550611b08816002546120e090919063ffffffff16565b600281905550600073ffffffffffffffffffffffffffffffffffffffff168273ffffffffffffffffffffffffffffffffffffffff167fddf252ad1be2c89b69c2b068fc378daa952ba7f163c4a11628f55a4df523b3ef836040518082815260200191505060405180910390a35050565b611b8282826119be565b611c4382611b8e611314565b611c3e8460405180606001604052806024815260200161241560249139600160008973ffffffffffffffffffffffffffffffffffffffff1673ffffffffffffffffffffffffffffffffffffffff1681526020019081526020016000206000611bf4611314565b73ffffffffffffffffffffffffffffffffffffffff1673ffffffffffffffffffffffffffffffffffffffff168152602001908152602001600020546117d19092919063ffffffff16565b61131c565b5050565b611c5b81600661212a90919063ffffffff16565b8073ffffffffffffffffffffffffffffffffffffffff167f6ae172837ea30b801fbfcdd4108aa1d5bf8ff775444fd70256b44e6bf3dfc3f660405160405180910390a250565b611cb581600661220790919063ffffffff16565b8073ffffffffffffffffffffffffffffffffffffffff167fe94479a9f7e1952cc78f2d6baab678adc1b772d936c6583def489e524cb6669260405160405180910390a250565b60008073ffffffffffffffffffffffffffffffffffffffff168273ffffffffffffffffffffffffffffffffffffffff1614151515611d84576040517f08c379a00000000000000000000000000000000000000000000000000000000081526004018080602001828103825260228152602001806123f36022913960400191505060405180910390fd5b8260000160008373ffffffffffffffffffffffffffffffffffffffff1673ffffffffffffffffffffffffffffffffffffffff16815260200190815260200160002060009054906101000a900460ff16905092915050565b600073ffffffffffffffffffffffffffffffffffffffff168173ffffffffffffffffffffffffffffffffffffffff1614151515611e63576040517f08c379a000000000000000000000000000000000000000000000000000000000815260040180806020018281038252602681526020018061230c6026913960400191505060405180910390fd5b8073ffffffffffffffffffffffffffffffffffffffff16600860009054906101000a900473ffffffffffffffffffffffffffffffffffffffff1673ffffffffffffffffffffffffffffffffffffffff167f8be0079c531659141344cd1fd0a4f28419497f9722a3daafe3b4186f6b6457e060405160405180910390a380600860006101000a81548173ffffffffffffffffffffffffffffffffffffffff021916908373ffffffffffffffffffffffffffffffffffffffff16021790555050565b600073ffffffffffffffffffffffffffffffffffffffff168273ffffffffffffffffffffffffffffffffffffffff1614151515611fc8576040517f08c379a000000000000000000000000000000000000000000000000000000000815260040180806020018281038252601f8152602001807f45524332303a206d696e7420746f20746865207a65726f20616464726573730081525060200191505060405180910390fd5b611fdd8160025461189390919063ffffffff16565b600281905550612034816000808573ffffffffffffffffffffffffffffffffffffffff1673ffffffffffffffffffffffffffffffffffffffff1681526020019081526020016000205461189390919063ffffffff16565b6000808473ffffffffffffffffffffffffffffffffffffffff1673ffffffffffffffffffffffffffffffffffffffff168152602001908152602001600020819055508173ffffffffffffffffffffffffffffffffffffffff16600073ffffffffffffffffffffffffffffffffffffffff167fddf252ad1be2c89b69c2b068fc378daa952ba7f163c4a11628f55a4df523b3ef836040518082815260200191505060405180910390a35050565b600061212283836040518060400160405280601e81526020017f536166654d6174683a207375627472616374696f6e206f766572666c6f7700008152506117d1565b905092915050565b6121348282611cfb565b1515156121a9576040517f08c379a000000000000000000000000000000000000000000000000000000000815260040180806020018281038252601f8152602001807f526f6c65733a206163636f756e7420616c72656164792068617320726f6c650081525060200191505060405180910390fd5b60018260000160008373ffffffffffffffffffffffffffffffffffffffff1673ffffffffffffffffffffffffffffffffffffffff16815260200190815260200160002060006101000a81548160ff0219169083151502179055505050565b6122118282611cfb565b1515612268576040517f08c379a00000000000000000000000000000000000000000000000000000000081526004018080602001828103825260218152602001806123aa6021913960400191505060405180910390fd5b60008260000160008373ffffffffffffffffffffffffffffffffffffffff1673ffffffffffffffffffffffffffffffffffffffff16815260200190815260200160002060006101000a81548160ff021916908315150217905550505056fe45524332303a207472616e7366657220746f20746865207a65726f206164647265737345524332303a206275726e20616d6f756e7420657863656564732062616c616e63654f776e61626c653a206e6577206f776e657220697320746865207a65726f206164647265737345524332303a20617070726f766520746f20746865207a65726f206164647265737345524332303a207472616e7366657220616d6f756e7420657863656564732062616c616e63654d696e746572526f6c653a2063616c6c657220646f6573206e6f74206861766520746865204d696e74657220726f6c65526f6c65733a206163636f756e7420646f6573206e6f74206861766520726f6c6545524332303a207472616e7366657220616d6f756e74206578636565647320616c6c6f77616e6365526f6c65733a206163636f756e7420697320746865207a65726f206164647265737345524332303a206275726e20616d6f756e74206578636565647320616c6c6f77616e636545524332303a206275726e2066726f6d20746865207a65726f206164647265737345524332303a207472616e736665722066726f6d20746865207a65726f206164647265737345524332303a20617070726f76652066726f6d20746865207a65726f206164647265737345524332303a2064656372656173656420616c6c6f77616e63652062656c6f77207a65726fa165627a7a7230582045d12726a27a40b26a052bbbcebc2561ff6fe4988248e71997873366779bdddb00294f776e61626c653a206e6577206f776e657220697320746865207a65726f2061646472657373526f6c65733a206163636f756e7420697320746865207a65726f20616464726573734f776e61626c653a206e6577206f776e657220697320746865207a65726f2061646472657373",
  "source": "// contracts/PrimaBlueToken.sol\n// SPDX-License-Identifier: MIT\npragma solidity ^0.5.0;\n\nimport \"./PrimaBlueToken.sol\";\nimport \"./PrimaBlueCrowdsale.sol\";\nimport \"./TokenVesting.sol\";\n\nimport \"@openzeppelin/contracts/crowdsale/Crowdsale.sol\";\nimport \"@openzeppelin/contracts/crowdsale/emission/MintedCrowdsale.sol\";\nimport \"@openzeppelin/contracts/ownership/Ownable.sol\";\nimport \"@openzeppelin/contracts/math/SafeMath.sol\";\n\ncontract PrimaBlueCrowdsaleDeployer is Ownable {\n    using SafeMath for uint256;\n\n    PrimaBlueToken public token;\n    PrimaBlueCrowdsale public presale;\n    PrimaBlueCrowdsale public mainsale;\n\n    uint8 private constant decimals = 18;\n    uint256 private constant decimalFactor = 10**uint256(decimals);\n\n\n// AVAILABLE_PRESALE_SUPPLY\t10000000\t10.00%\n// AVAILABLE_MAINSALE_SUPPLY\t35000000\t35.00%\n// AVAILABLE_FOUNDATION_SUPPLY\t35000000\t35.00%\n// AVAILABLE_BOUNTY_SUPPLY\t1000000\t1.00%\n// AVAILABLE_FAMILYFRIENDS_SUPPLY\t2000000\t2.00%\n// AVAILABLE_TEAM_SUPPLY\t15000000\t15.00%\n// AVAILABLE_ADVISOR_SUPPLY\t2000000\t2.00%\n\n    uint256 private constant AVAILABLE_TOTAL_SUPPLY = 100000000 * decimalFactor;\n\n    uint256 private constant AVAILABLE_PRESALE_SUPPLY = 10000000 * decimalFactor; // 10% Released at Token Distribution (TD)\n    uint256 private constant AVAILABLE_MAINSALE_SUPPLY = 35000000 * decimalFactor; // 35% Released at Token Distribution (TD)\n    uint256 private constant AVAILABLE_FOUNDATION_SUPPLY = 35000000 * decimalFactor; // 35% Released at Token Distribution (TD)\n\n    uint256 private constant AVAILABLE_BOUNTY_SUPPLY = 1000000 * decimalFactor; // 1% Released at TD\n    uint256 private constant AVAILABLE_FAMILYFRIENDS_SUPPLY = 2000000 * decimalFactor; // 2% Released at TD\n    uint256 private constant AVAILABLE_TEAM_SUPPLY = 15000000 * decimalFactor; // 15% Released at TD +1 years\n\n    uint256 private constant AVAILABLE_ADVISOR_SUPPLY = 2000000 * decimalFactor; // 2% Released at TD +1 years\n\n    uint256 private constant TOKEN_VESTING_DURATION_SECONDS = 31536000; // 1 years as seconds\n\n    constructor(address owner) public {\n        transferOwnership(owner);\n        token = new PrimaBlueToken(owner);\n    }\n\n    function mint(\n        address payable foundationWallet,\n        address payable bountyWallet,\n        address payable familyFriendsWallet,\n        address[] memory teamAddr,\n        uint256[] memory teamAmounts,\n        address[] memory advisorAddr,\n        uint256[] memory advisorAmounts\n    ) public onlyOwner returns (bool) {\n        require(teamAddr.length == teamAmounts.length);\n        require(advisorAddr.length == advisorAmounts.length);\n\n        token.mint(foundationWallet, AVAILABLE_FOUNDATION_SUPPLY);\n        token.mint(bountyWallet, AVAILABLE_BOUNTY_SUPPLY);\n        token.mint(familyFriendsWallet, AVAILABLE_FAMILYFRIENDS_SUPPLY);\n        require(\n            token.totalSupply() ==\n                AVAILABLE_TOTAL_SUPPLY \n                    .sub(AVAILABLE_MAINSALE_SUPPLY)\n                    .sub(AVAILABLE_PRESALE_SUPPLY)\n                    .sub(AVAILABLE_ADVISOR_SUPPLY)\n                    .sub(AVAILABLE_TEAM_SUPPLY),\n            \"AVAILABLE_FAMILYFRIENDS_SUPPLY\"\n        );\n\n        for (uint256 i = 0; i < teamAddr.length; i++) {\n            TokenVesting vesting = TokenVesting(teamAddr[i]);\n            require(vesting.duration() == TOKEN_VESTING_DURATION_SECONDS);\n            token.mint(teamAddr[i], teamAmounts[i].mul(decimalFactor));\n        }\n        require(\n            token.totalSupply() ==\n                AVAILABLE_TOTAL_SUPPLY\n                    .sub(AVAILABLE_MAINSALE_SUPPLY)\n                    .sub(AVAILABLE_PRESALE_SUPPLY)\n                    .sub(AVAILABLE_ADVISOR_SUPPLY),\n            \"AVAILABLE_TEAM_SUPPLY\"\n        );\n\n        for (uint256 i = 0; i < advisorAddr.length; i++) {\n            TokenVesting vesting = TokenVesting(advisorAddr[i]);\n            require(vesting.duration() == TOKEN_VESTING_DURATION_SECONDS);\n            token.mint(advisorAddr[i], advisorAmounts[i].mul(decimalFactor));\n        }\n        require(\n            token.totalSupply() ==\n                AVAILABLE_TOTAL_SUPPLY.sub(AVAILABLE_MAINSALE_SUPPLY).sub(\n                    AVAILABLE_PRESALE_SUPPLY\n                ),\n            \"AVAILABLE_ADVISOR_SUPPLY\"\n        );\n\n        return true;\n    }\n\n    function createPreSale(\n        uint256 defaultRate,\n        address owner,\n        address payable wallet,\n        uint256 openingTime,\n        uint256 closingTime\n    ) public onlyOwner returns (bool) {\n        require(address(presale) == address(0), \"ALREADY_INITIALIZED\");\n\n\n        // uint256 defaultRate,  \n        // address owner,  \n        // address payable wallet,\n        // IERC20 token,\n        // uint256 openingTime,\n        // uint256 closingTime\n        presale = new PrimaBlueCrowdsale(\n            defaultRate,\n            owner,\n            wallet,\n            token,\n            openingTime,\n            closingTime\n        );\n\n        token.mint(address(presale), AVAILABLE_PRESALE_SUPPLY);\n\n        return true;\n    }\n\n    function createMainSale(\n        uint256 defaultRate,\n        address owner,\n        address payable wallet,\n        uint256 openingTime,\n        uint256 closingTime\n    ) public onlyOwner returns (bool) {\n        require(address(mainsale) == address(0), \"ALREADY_INITIALIZED\");\n\n        mainsale = new PrimaBlueCrowdsale(\n            defaultRate,\n            owner,\n            wallet,\n            token,\n            openingTime,\n            closingTime\n        );\n        token.mint(address(mainsale), AVAILABLE_MAINSALE_SUPPLY);\n\n        return true;\n    }\n}\n",
  "sourcePath": "/Users/claytongraham/data/github/claytantor/prima-blue-erc20/contracts/PrimaBlueCrowdsaleDeployer.sol",
  "compiler": {
    "name": "solc",
    "version": "0.5.5+commit.47a71e8f.Emscripten.clang"
  },
  "schemaVersion": "3.4.1",
  "updatedAt": "2021-08-08T16:54:10.239Z",
  "networkType": "ethereum",
  "devdoc": {
    "methods": {
      "isOwner()": {
        "details": "Returns true if the caller is the current owner."
      },
      "owner()": {
        "details": "Returns the address of the current owner."
      },
      "renounceOwnership()": {
        "details": "Leaves the contract without owner. It will not be possible to call `onlyOwner` functions anymore. Can only be called by the current owner.     * NOTE: Renouncing ownership will leave the contract without an owner, thereby removing any functionality that is only available to the owner."
      },
      "transferOwnership(address)": {
        "details": "Transfers ownership of the contract to a new account (`newOwner`). Can only be called by the current owner."
      }
    }
  },
  "userdoc": {
    "methods": {}
  }
}